{
  "address": "0x7B643C4FAF5a1a7EA28d1b99f96BBdFC160830eb",
  "abi": [
    {
      "anonymous": false,
      "inputs": [
        {
          "indexed": true,
          "internalType": "address",
          "name": "previousOwner",
          "type": "address"
        },
        {
          "indexed": true,
          "internalType": "address",
          "name": "newOwner",
          "type": "address"
        }
      ],
      "name": "OwnershipTransferred",
      "type": "event"
    },
    {
      "inputs": [
        {
          "internalType": "address",
          "name": "driver",
          "type": "address"
        },
        {
          "components": [
            {
              "internalType": "string",
              "name": "vehicle_no",
              "type": "string"
            },
            {
              "internalType": "string",
              "name": "RC",
              "type": "string"
            },
            {
              "internalType": "string",
              "name": "vehicleImages",
              "type": "string"
            },
            {
              "internalType": "enum Vehicle.VEHICLE_TYPE",
              "name": "vehicleType",
              "type": "uint8"
            },
            {
              "internalType": "address",
              "name": "driver",
              "type": "address"
            }
          ],
          "internalType": "struct Vehicle.VEHICLE_INFO",
          "name": "_vehicle",
          "type": "tuple"
        }
      ],
      "name": "addVehicle",
      "outputs": [],
      "stateMutability": "nonpayable",
      "type": "function"
    },
    {
      "inputs": [
        {
          "internalType": "uint256",
          "name": "_rideId",
          "type": "uint256"
        },
        {
          "internalType": "enum Ride.appUser",
          "name": "_wasCancelledBy",
          "type": "uint8"
        },
        {
          "internalType": "string",
          "name": "_timestamp",
          "type": "string"
        }
      ],
      "name": "cancelRide",
      "outputs": [],
      "stateMutability": "nonpayable",
      "type": "function"
    },
    {
      "inputs": [
        {
          "internalType": "uint256",
          "name": "_rideId",
          "type": "uint256"
        },
        {
          "internalType": "string",
          "name": "_timestamp",
          "type": "string"
        }
      ],
      "name": "completeRide",
      "outputs": [],
      "stateMutability": "nonpayable",
      "type": "function"
    },
    {
      "inputs": [
        {
          "components": [
            {
              "internalType": "address",
              "name": "customer",
              "type": "address"
            },
            {
              "internalType": "address",
              "name": "driver",
              "type": "address"
            }
          ],
          "internalType": "struct Ride.USERS",
          "name": "_user",
          "type": "tuple"
        },
        {
          "components": [
            {
              "internalType": "bool",
              "name": "isCancelled",
              "type": "bool"
            },
            {
              "internalType": "bool",
              "name": "isComplete",
              "type": "bool"
            },
            {
              "internalType": "bool",
              "name": "isConfirmed",
              "type": "bool"
            },
            {
              "internalType": "enum Ride.appUser",
              "name": "wasCancelledBy",
              "type": "uint8"
            }
          ],
          "internalType": "struct Ride.STATUS",
          "name": "_status",
          "type": "tuple"
        },
        {
          "components": [
            {
              "internalType": "string",
              "name": "pickup",
              "type": "string"
            },
            {
              "internalType": "string",
              "name": "destination",
              "type": "string"
            },
            {
              "internalType": "uint256",
              "name": "distance",
              "type": "uint256"
            },
            {
              "internalType": "uint256",
              "name": "price",
              "type": "uint256"
            }
          ],
          "internalType": "struct Ride.RIDE_DETAILS",
          "name": "_details",
          "type": "tuple"
        },
        {
          "internalType": "string",
          "name": "_timestamp",
          "type": "string"
        }
      ],
      "name": "confirmRide",
      "outputs": [
        {
          "internalType": "uint256",
          "name": "",
          "type": "uint256"
        }
      ],
      "stateMutability": "nonpayable",
      "type": "function"
    },
    {
      "inputs": [
        {
          "internalType": "uint256[]",
          "name": "rideIds",
          "type": "uint256[]"
        }
      ],
      "name": "getAllRides",
      "outputs": [
        {
          "components": [
            {
              "internalType": "uint256",
              "name": "id",
              "type": "uint256"
            },
            {
              "components": [
                {
                  "internalType": "address",
                  "name": "customer",
                  "type": "address"
                },
                {
                  "internalType": "address",
                  "name": "driver",
                  "type": "address"
                }
              ],
              "internalType": "struct Ride.USERS",
              "name": "users",
              "type": "tuple"
            },
            {
              "components": [
                {
                  "internalType": "bool",
                  "name": "isCancelled",
                  "type": "bool"
                },
                {
                  "internalType": "bool",
                  "name": "isComplete",
                  "type": "bool"
                },
                {
                  "internalType": "bool",
                  "name": "isConfirmed",
                  "type": "bool"
                },
                {
                  "internalType": "enum Ride.appUser",
                  "name": "wasCancelledBy",
                  "type": "uint8"
                }
              ],
              "internalType": "struct Ride.STATUS",
              "name": "status",
              "type": "tuple"
            },
            {
              "components": [
                {
                  "internalType": "string",
                  "name": "pickup",
                  "type": "string"
                },
                {
                  "internalType": "string",
                  "name": "destination",
                  "type": "string"
                },
                {
                  "internalType": "uint256",
                  "name": "distance",
                  "type": "uint256"
                },
                {
                  "internalType": "uint256",
                  "name": "price",
                  "type": "uint256"
                }
              ],
              "internalType": "struct Ride.RIDE_DETAILS",
              "name": "ride",
              "type": "tuple"
            },
            {
              "components": [
                {
                  "internalType": "string",
                  "name": "vehicle_no",
                  "type": "string"
                },
                {
                  "internalType": "string",
                  "name": "RC",
                  "type": "string"
                },
                {
                  "internalType": "string",
                  "name": "vehicleImages",
                  "type": "string"
                },
                {
                  "internalType": "enum Vehicle.VEHICLE_TYPE",
                  "name": "vehicleType",
                  "type": "uint8"
                },
                {
                  "internalType": "address",
                  "name": "driver",
                  "type": "address"
                }
              ],
              "internalType": "struct Vehicle.VEHICLE_INFO",
              "name": "vehicle",
              "type": "tuple"
            },
            {
              "internalType": "string",
              "name": "timestamp",
              "type": "string"
            }
          ],
          "internalType": "struct Ride.RIDE[]",
          "name": "",
          "type": "tuple[]"
        }
      ],
      "stateMutability": "view",
      "type": "function"
    },
    {
      "inputs": [
        {
          "internalType": "uint256",
          "name": "_rideId",
          "type": "uint256"
        }
      ],
      "name": "getRide",
      "outputs": [
        {
          "components": [
            {
              "internalType": "uint256",
              "name": "id",
              "type": "uint256"
            },
            {
              "components": [
                {
                  "internalType": "address",
                  "name": "customer",
                  "type": "address"
                },
                {
                  "internalType": "address",
                  "name": "driver",
                  "type": "address"
                }
              ],
              "internalType": "struct Ride.USERS",
              "name": "users",
              "type": "tuple"
            },
            {
              "components": [
                {
                  "internalType": "bool",
                  "name": "isCancelled",
                  "type": "bool"
                },
                {
                  "internalType": "bool",
                  "name": "isComplete",
                  "type": "bool"
                },
                {
                  "internalType": "bool",
                  "name": "isConfirmed",
                  "type": "bool"
                },
                {
                  "internalType": "enum Ride.appUser",
                  "name": "wasCancelledBy",
                  "type": "uint8"
                }
              ],
              "internalType": "struct Ride.STATUS",
              "name": "status",
              "type": "tuple"
            },
            {
              "components": [
                {
                  "internalType": "string",
                  "name": "pickup",
                  "type": "string"
                },
                {
                  "internalType": "string",
                  "name": "destination",
                  "type": "string"
                },
                {
                  "internalType": "uint256",
                  "name": "distance",
                  "type": "uint256"
                },
                {
                  "internalType": "uint256",
                  "name": "price",
                  "type": "uint256"
                }
              ],
              "internalType": "struct Ride.RIDE_DETAILS",
              "name": "ride",
              "type": "tuple"
            },
            {
              "components": [
                {
                  "internalType": "string",
                  "name": "vehicle_no",
                  "type": "string"
                },
                {
                  "internalType": "string",
                  "name": "RC",
                  "type": "string"
                },
                {
                  "internalType": "string",
                  "name": "vehicleImages",
                  "type": "string"
                },
                {
                  "internalType": "enum Vehicle.VEHICLE_TYPE",
                  "name": "vehicleType",
                  "type": "uint8"
                },
                {
                  "internalType": "address",
                  "name": "driver",
                  "type": "address"
                }
              ],
              "internalType": "struct Vehicle.VEHICLE_INFO",
              "name": "vehicle",
              "type": "tuple"
            },
            {
              "internalType": "string",
              "name": "timestamp",
              "type": "string"
            }
          ],
          "internalType": "struct Ride.RIDE",
          "name": "",
          "type": "tuple"
        }
      ],
      "stateMutability": "view",
      "type": "function"
    },
    {
      "inputs": [],
      "name": "getRideCount",
      "outputs": [
        {
          "internalType": "uint256",
          "name": "",
          "type": "uint256"
        }
      ],
      "stateMutability": "view",
      "type": "function"
    },
    {
      "inputs": [
        {
          "internalType": "address",
          "name": "driver",
          "type": "address"
        }
      ],
      "name": "getVehicle",
      "outputs": [
        {
          "components": [
            {
              "internalType": "string",
              "name": "vehicle_no",
              "type": "string"
            },
            {
              "internalType": "string",
              "name": "RC",
              "type": "string"
            },
            {
              "internalType": "string",
              "name": "vehicleImages",
              "type": "string"
            },
            {
              "internalType": "enum Vehicle.VEHICLE_TYPE",
              "name": "vehicleType",
              "type": "uint8"
            },
            {
              "internalType": "address",
              "name": "driver",
              "type": "address"
            }
          ],
          "internalType": "struct Vehicle.VEHICLE_INFO",
          "name": "",
          "type": "tuple"
        }
      ],
      "stateMutability": "view",
      "type": "function"
    },
    {
      "inputs": [],
      "name": "owner",
      "outputs": [
        {
          "internalType": "address",
          "name": "",
          "type": "address"
        }
      ],
      "stateMutability": "view",
      "type": "function"
    },
    {
      "inputs": [],
      "name": "renounceOwnership",
      "outputs": [],
      "stateMutability": "nonpayable",
      "type": "function"
    },
    {
      "inputs": [
        {
          "internalType": "address",
          "name": "newOwner",
          "type": "address"
        }
      ],
      "name": "transferOwnership",
      "outputs": [],
      "stateMutability": "nonpayable",
      "type": "function"
    },
    {
      "inputs": [
        {
          "internalType": "address",
          "name": "driver",
          "type": "address"
        },
        {
          "components": [
            {
              "internalType": "string",
              "name": "vehicle_no",
              "type": "string"
            },
            {
              "internalType": "string",
              "name": "RC",
              "type": "string"
            },
            {
              "internalType": "string",
              "name": "vehicleImages",
              "type": "string"
            },
            {
              "internalType": "enum Vehicle.VEHICLE_TYPE",
              "name": "vehicleType",
              "type": "uint8"
            },
            {
              "internalType": "address",
              "name": "driver",
              "type": "address"
            }
          ],
          "internalType": "struct Vehicle.VEHICLE_INFO",
          "name": "_vehicle",
          "type": "tuple"
        }
      ],
      "name": "updateVehicle",
      "outputs": [],
      "stateMutability": "nonpayable",
      "type": "function"
    }
  ],
  "transactionHash": "0x4b4cae83ce57dde4f515f4757356d3d8298636d3c018dd5d8d8e476f6625dddd",
  "args": [],
  "numDeployments": 1,
  "solcInputHash": "9025de1b8c304f428688a4186a413fff",
  "bytecode": "0x60806040523480156200001157600080fd5b5062000032620000266200003860201b60201c565b6200004060201b60201c565b62000104565b600033905090565b60008060009054906101000a900473ffffffffffffffffffffffffffffffffffffffff169050816000806101000a81548173ffffffffffffffffffffffffffffffffffffffff021916908373ffffffffffffffffffffffffffffffffffffffff1602179055508173ffffffffffffffffffffffffffffffffffffffff168173ffffffffffffffffffffffffffffffffffffffff167f8be0079c531659141344cd1fd0a4f28419497f9722a3daafe3b4186f6b6457e060405160405180910390a35050565b6144a980620001146000396000f3fe608060405234801561001057600080fd5b50600436106100b45760003560e01c80637aa9d3bb116100715780637aa9d3bb146101635780637c7b0ff4146101935780638959a5d1146101c35780638da5cb5b146101e1578063a93ab101146101ff578063f2fde38b1461022f576100b4565b80631f0e008c146100b957806349d88383146100e957806359412a851461010557806364116aa8146101215780636a361e671461013d578063715018a614610159575b600080fd5b6100d360048036038101906100ce9190613988565b61024b565b6040516100e091906140bc565b60405180910390f35b61010360048036038101906100fe91906138f3565b610898565b005b61011f600480360381019061011a9190613a45565b610a5b565b005b61013b600480360381019061013691906138f3565b61144c565b005b61015760048036038101906101529190613aac565b61160f565b005b610161611f7f565b005b61017d60048036038101906101789190613947565b612007565b60405161018a9190614016565b60405180910390f35b6101ad60048036038101906101a89190613a1c565b612726565b6040516101ba9190614078565b60405180910390f35b6101cb612d8e565b6040516101d891906140bc565b60405180910390f35b6101e9612d98565b6040516101f69190613ffb565b60405180910390f35b610219600480360381019061021491906138ca565b612dc1565b604051610226919061409a565b60405180910390f35b610249600480360381019061024491906138ca565b613129565b005b600060026000815480929190610260906142d0565b919050555060008590506000859050600085905061027c6132ed565b600254816000018181525050838160200181905250828160400181905250818160600181905250600160008a6020015173ffffffffffffffffffffffffffffffffffffffff1673ffffffffffffffffffffffffffffffffffffffff1681526020019081526020016000206040518060a00160405290816000820180546103019061429e565b80601f016020809104026020016040519081016040528092919081815260200182805461032d9061429e565b801561037a5780601f1061034f5761010080835404028352916020019161037a565b820191906000526020600020905b81548152906001019060200180831161035d57829003601f168201915b505050505081526020016001820180546103939061429e565b80601f01602080910402602001604051908101604052809291908181526020018280546103bf9061429e565b801561040c5780601f106103e15761010080835404028352916020019161040c565b820191906000526020600020905b8154815290600101906020018083116103ef57829003601f168201915b505050505081526020016002820180546104259061429e565b80601f01602080910402602001604051908101604052809291908181526020018280546104519061429e565b801561049e5780601f106104735761010080835404028352916020019161049e565b820191906000526020600020905b81548152906001019060200180831161048157829003601f168201915b505050505081526020016003820160009054906101000a900460ff1660038111156104f2577f4e487b7100000000000000000000000000000000000000000000000000000000600052602160045260246000fd5b600381111561052a577f4e487b7100000000000000000000000000000000000000000000000000000000600052602160045260246000fd5b81526020016003820160019054906101000a900473ffffffffffffffffffffffffffffffffffffffff1673ffffffffffffffffffffffffffffffffffffffff1673ffffffffffffffffffffffffffffffffffffffff16815250508160800181905250858160a00181905250806003600060025481526020019081526020016000206000820151816000015560208201518160010160008201518160000160006101000a81548173ffffffffffffffffffffffffffffffffffffffff021916908373ffffffffffffffffffffffffffffffffffffffff16021790555060208201518160010160006101000a81548173ffffffffffffffffffffffffffffffffffffffff021916908373ffffffffffffffffffffffffffffffffffffffff160217905550505060408201518160030160008201518160000160006101000a81548160ff02191690831515021790555060208201518160000160016101000a81548160ff02191690831515021790555060408201518160000160026101000a81548160ff02191690831515021790555060608201518160000160036101000a81548160ff02191690836002811115610708577f4e487b7100000000000000000000000000000000000000000000000000000000600052602160045260246000fd5b02179055505050606082015181600401600082015181600001908051906020019061073492919061333b565b50602082015181600101908051906020019061075192919061333b565b5060408201518160020155606082015181600301555050608082015181600801600082015181600001908051906020019061078d92919061333b565b5060208201518160010190805190602001906107aa92919061333b565b5060408201518160020190805190602001906107c792919061333b565b5060608201518160030160006101000a81548160ff02191690836003811115610819577f4e487b7100000000000000000000000000000000000000000000000000000000600052602160045260246000fd5b021790555060808201518160030160016101000a81548173ffffffffffffffffffffffffffffffffffffffff021916908373ffffffffffffffffffffffffffffffffffffffff160217905550505060a082015181600c01908051906020019061088392919061333b565b50905050600254945050505050949350505050565b6108a0613221565b73ffffffffffffffffffffffffffffffffffffffff166108be612d98565b73ffffffffffffffffffffffffffffffffffffffff1614610914576040517f08c379a000000000000000000000000000000000000000000000000000000000815260040161090b90614058565b60405180910390fd5b61091c6133c1565b81905080600160008573ffffffffffffffffffffffffffffffffffffffff1673ffffffffffffffffffffffffffffffffffffffff168152602001908152602001600020600082015181600001908051906020019061097b92919061333b565b50602082015181600101908051906020019061099892919061333b565b5060408201518160020190805190602001906109b592919061333b565b5060608201518160030160006101000a81548160ff02191690836003811115610a07577f4e487b7100000000000000000000000000000000000000000000000000000000600052602160045260246000fd5b021790555060808201518160030160016101000a81548173ffffffffffffffffffffffffffffffffffffffff021916908373ffffffffffffffffffffffffffffffffffffffff160217905550905050505050565b6000600360008581526020019081526020016000206040518060c001604052908160008201548152602001600182016040518060400160405290816000820160009054906101000a900473ffffffffffffffffffffffffffffffffffffffff1673ffffffffffffffffffffffffffffffffffffffff1673ffffffffffffffffffffffffffffffffffffffff1681526020016001820160009054906101000a900473ffffffffffffffffffffffffffffffffffffffff1673ffffffffffffffffffffffffffffffffffffffff1673ffffffffffffffffffffffffffffffffffffffff16815250508152602001600382016040518060800160405290816000820160009054906101000a900460ff161515151581526020016000820160019054906101000a900460ff161515151581526020016000820160029054906101000a900460ff161515151581526020016000820160039054906101000a900460ff166002811115610bf1577f4e487b7100000000000000000000000000000000000000000000000000000000600052602160045260246000fd5b6002811115610c29577f4e487b7100000000000000000000000000000000000000000000000000000000600052602160045260246000fd5b81525050815260200160048201604051806080016040529081600082018054610c519061429e565b80601f0160208091040260200160405190810160405280929190818152602001828054610c7d9061429e565b8015610cca5780601f10610c9f57610100808354040283529160200191610cca565b820191906000526020600020905b815481529060010190602001808311610cad57829003601f168201915b50505050508152602001600182018054610ce39061429e565b80601f0160208091040260200160405190810160405280929190818152602001828054610d0f9061429e565b8015610d5c5780601f10610d3157610100808354040283529160200191610d5c565b820191906000526020600020905b815481529060010190602001808311610d3f57829003601f168201915b50505050508152602001600282015481526020016003820154815250508152602001600882016040518060a0016040529081600082018054610d9d9061429e565b80601f0160208091040260200160405190810160405280929190818152602001828054610dc99061429e565b8015610e165780601f10610deb57610100808354040283529160200191610e16565b820191906000526020600020905b815481529060010190602001808311610df957829003601f168201915b50505050508152602001600182018054610e2f9061429e565b80601f0160208091040260200160405190810160405280929190818152602001828054610e5b9061429e565b8015610ea85780601f10610e7d57610100808354040283529160200191610ea8565b820191906000526020600020905b815481529060010190602001808311610e8b57829003601f168201915b50505050508152602001600282018054610ec19061429e565b80601f0160208091040260200160405190810160405280929190818152602001828054610eed9061429e565b8015610f3a5780601f10610f0f57610100808354040283529160200191610f3a565b820191906000526020600020905b815481529060010190602001808311610f1d57829003601f168201915b505050505081526020016003820160009054906101000a900460ff166003811115610f8e577f4e487b7100000000000000000000000000000000000000000000000000000000600052602160045260246000fd5b6003811115610fc6577f4e487b7100000000000000000000000000000000000000000000000000000000600052602160045260246000fd5b81526020016003820160019054906101000a900473ffffffffffffffffffffffffffffffffffffffff1673ffffffffffffffffffffffffffffffffffffffff1673ffffffffffffffffffffffffffffffffffffffff16815250508152602001600c820180546110349061429e565b80601f01602080910402602001604051908101604052809291908181526020018280546110609061429e565b80156110ad5780601f10611082576101008083540402835291602001916110ad565b820191906000526020600020905b81548152906001019060200180831161109057829003601f168201915b505050505081525050905060018160400151600001901515908115158152505082816040015160600190600281111561110f577f4e487b7100000000000000000000000000000000000000000000000000000000600052602160045260246000fd5b90816002811115611149577f4e487b7100000000000000000000000000000000000000000000000000000000600052602160045260246000fd5b81525050818160a0018190525080600360008681526020019081526020016000206000820151816000015560208201518160010160008201518160000160006101000a81548173ffffffffffffffffffffffffffffffffffffffff021916908373ffffffffffffffffffffffffffffffffffffffff16021790555060208201518160010160006101000a81548173ffffffffffffffffffffffffffffffffffffffff021916908373ffffffffffffffffffffffffffffffffffffffff160217905550505060408201518160030160008201518160000160006101000a81548160ff02191690831515021790555060208201518160000160016101000a81548160ff02191690831515021790555060408201518160000160026101000a81548160ff02191690831515021790555060608201518160000160036101000a81548160ff021916908360028111156112c7577f4e487b7100000000000000000000000000000000000000000000000000000000600052602160045260246000fd5b0217905550505060608201518160040160008201518160000190805190602001906112f392919061333b565b50602082015181600101908051906020019061131092919061333b565b5060408201518160020155606082015181600301555050608082015181600801600082015181600001908051906020019061134c92919061333b565b50602082015181600101908051906020019061136992919061333b565b50604082015181600201908051906020019061138692919061333b565b5060608201518160030160006101000a81548160ff021916908360038111156113d8577f4e487b7100000000000000000000000000000000000000000000000000000000600052602160045260246000fd5b021790555060808201518160030160016101000a81548173ffffffffffffffffffffffffffffffffffffffff021916908373ffffffffffffffffffffffffffffffffffffffff160217905550505060a082015181600c01908051906020019061144292919061333b565b5090505050505050565b611454613221565b73ffffffffffffffffffffffffffffffffffffffff16611472612d98565b73ffffffffffffffffffffffffffffffffffffffff16146114c8576040517f08c379a00000000000000000000000000000000000000000000000000000000081526004016114bf90614058565b60405180910390fd5b6114d06133c1565b81905080600160008573ffffffffffffffffffffffffffffffffffffffff1673ffffffffffffffffffffffffffffffffffffffff168152602001908152602001600020600082015181600001908051906020019061152f92919061333b565b50602082015181600101908051906020019061154c92919061333b565b50604082015181600201908051906020019061156992919061333b565b5060608201518160030160006101000a81548160ff021916908360038111156115bb577f4e487b7100000000000000000000000000000000000000000000000000000000600052602160045260246000fd5b021790555060808201518160030160016101000a81548173ffffffffffffffffffffffffffffffffffffffff021916908373ffffffffffffffffffffffffffffffffffffffff160217905550905050505050565b6000600360008481526020019081526020016000206040518060c001604052908160008201548152602001600182016040518060400160405290816000820160009054906101000a900473ffffffffffffffffffffffffffffffffffffffff1673ffffffffffffffffffffffffffffffffffffffff1673ffffffffffffffffffffffffffffffffffffffff1681526020016001820160009054906101000a900473ffffffffffffffffffffffffffffffffffffffff1673ffffffffffffffffffffffffffffffffffffffff1673ffffffffffffffffffffffffffffffffffffffff16815250508152602001600382016040518060800160405290816000820160009054906101000a900460ff161515151581526020016000820160019054906101000a900460ff161515151581526020016000820160029054906101000a900460ff161515151581526020016000820160039054906101000a900460ff1660028111156117a5577f4e487b7100000000000000000000000000000000000000000000000000000000600052602160045260246000fd5b60028111156117dd577f4e487b7100000000000000000000000000000000000000000000000000000000600052602160045260246000fd5b815250508152602001600482016040518060800160405290816000820180546118059061429e565b80601f01602080910402602001604051908101604052809291908181526020018280546118319061429e565b801561187e5780601f106118535761010080835404028352916020019161187e565b820191906000526020600020905b81548152906001019060200180831161186157829003601f168201915b505050505081526020016001820180546118979061429e565b80601f01602080910402602001604051908101604052809291908181526020018280546118c39061429e565b80156119105780601f106118e557610100808354040283529160200191611910565b820191906000526020600020905b8154815290600101906020018083116118f357829003601f168201915b50505050508152602001600282015481526020016003820154815250508152602001600882016040518060a00160405290816000820180546119519061429e565b80601f016020809104026020016040519081016040528092919081815260200182805461197d9061429e565b80156119ca5780601f1061199f576101008083540402835291602001916119ca565b820191906000526020600020905b8154815290600101906020018083116119ad57829003601f168201915b505050505081526020016001820180546119e39061429e565b80601f0160208091040260200160405190810160405280929190818152602001828054611a0f9061429e565b8015611a5c5780601f10611a3157610100808354040283529160200191611a5c565b820191906000526020600020905b815481529060010190602001808311611a3f57829003601f168201915b50505050508152602001600282018054611a759061429e565b80601f0160208091040260200160405190810160405280929190818152602001828054611aa19061429e565b8015611aee5780601f10611ac357610100808354040283529160200191611aee565b820191906000526020600020905b815481529060010190602001808311611ad157829003601f168201915b505050505081526020016003820160009054906101000a900460ff166003811115611b42577f4e487b7100000000000000000000000000000000000000000000000000000000600052602160045260246000fd5b6003811115611b7a577f4e487b7100000000000000000000000000000000000000000000000000000000600052602160045260246000fd5b81526020016003820160019054906101000a900473ffffffffffffffffffffffffffffffffffffffff1673ffffffffffffffffffffffffffffffffffffffff1673ffffffffffffffffffffffffffffffffffffffff16815250508152602001600c82018054611be89061429e565b80601f0160208091040260200160405190810160405280929190818152602001828054611c149061429e565b8015611c615780601f10611c3657610100808354040283529160200191611c61565b820191906000526020600020905b815481529060010190602001808311611c4457829003601f168201915b5050505050815250509050600181604001516020019015159081151581525050818160a0018190525080600360008581526020019081526020016000206000820151816000015560208201518160010160008201518160000160006101000a81548173ffffffffffffffffffffffffffffffffffffffff021916908373ffffffffffffffffffffffffffffffffffffffff16021790555060208201518160010160006101000a81548173ffffffffffffffffffffffffffffffffffffffff021916908373ffffffffffffffffffffffffffffffffffffffff160217905550505060408201518160030160008201518160000160006101000a81548160ff02191690831515021790555060208201518160000160016101000a81548160ff02191690831515021790555060408201518160000160026101000a81548160ff02191690831515021790555060608201518160000160036101000a81548160ff02191690836002811115611dfb577f4e487b7100000000000000000000000000000000000000000000000000000000600052602160045260246000fd5b021790555050506060820151816004016000820151816000019080519060200190611e2792919061333b565b506020820151816001019080519060200190611e4492919061333b565b50604082015181600201556060820151816003015550506080820151816008016000820151816000019080519060200190611e8092919061333b565b506020820151816001019080519060200190611e9d92919061333b565b506040820151816002019080519060200190611eba92919061333b565b5060608201518160030160006101000a81548160ff02191690836003811115611f0c577f4e487b7100000000000000000000000000000000000000000000000000000000600052602160045260246000fd5b021790555060808201518160030160016101000a81548173ffffffffffffffffffffffffffffffffffffffff021916908373ffffffffffffffffffffffffffffffffffffffff160217905550505060a082015181600c019080519060200190611f7692919061333b565b50905050505050565b611f87613221565b73ffffffffffffffffffffffffffffffffffffffff16611fa5612d98565b73ffffffffffffffffffffffffffffffffffffffff1614611ffb576040517f08c379a0000000000000000000000000000000000000000000000000000000008152600401611ff290614058565b60405180910390fd5b6120056000613229565b565b6060806000805b845181101561271b576000858281518110612052577f4e487b7100000000000000000000000000000000000000000000000000000000600052603260045260246000fd5b60200260200101519050600360008281526020019081526020016000206040518060c001604052908160008201548152602001600182016040518060400160405290816000820160009054906101000a900473ffffffffffffffffffffffffffffffffffffffff1673ffffffffffffffffffffffffffffffffffffffff1673ffffffffffffffffffffffffffffffffffffffff1681526020016001820160009054906101000a900473ffffffffffffffffffffffffffffffffffffffff1673ffffffffffffffffffffffffffffffffffffffff1673ffffffffffffffffffffffffffffffffffffffff16815250508152602001600382016040518060800160405290816000820160009054906101000a900460ff161515151581526020016000820160019054906101000a900460ff161515151581526020016000820160029054906101000a900460ff161515151581526020016000820160039054906101000a900460ff1660028111156121f0577f4e487b7100000000000000000000000000000000000000000000000000000000600052602160045260246000fd5b6002811115612228577f4e487b7100000000000000000000000000000000000000000000000000000000600052602160045260246000fd5b815250508152602001600482016040518060800160405290816000820180546122509061429e565b80601f016020809104026020016040519081016040528092919081815260200182805461227c9061429e565b80156122c95780601f1061229e576101008083540402835291602001916122c9565b820191906000526020600020905b8154815290600101906020018083116122ac57829003601f168201915b505050505081526020016001820180546122e29061429e565b80601f016020809104026020016040519081016040528092919081815260200182805461230e9061429e565b801561235b5780601f106123305761010080835404028352916020019161235b565b820191906000526020600020905b81548152906001019060200180831161233e57829003601f168201915b50505050508152602001600282015481526020016003820154815250508152602001600882016040518060a001604052908160008201805461239c9061429e565b80601f01602080910402602001604051908101604052809291908181526020018280546123c89061429e565b80156124155780601f106123ea57610100808354040283529160200191612415565b820191906000526020600020905b8154815290600101906020018083116123f857829003601f168201915b5050505050815260200160018201805461242e9061429e565b80601f016020809104026020016040519081016040528092919081815260200182805461245a9061429e565b80156124a75780601f1061247c576101008083540402835291602001916124a7565b820191906000526020600020905b81548152906001019060200180831161248a57829003601f168201915b505050505081526020016002820180546124c09061429e565b80601f01602080910402602001604051908101604052809291908181526020018280546124ec9061429e565b80156125395780601f1061250e57610100808354040283529160200191612539565b820191906000526020600020905b81548152906001019060200180831161251c57829003601f168201915b505050505081526020016003820160009054906101000a900460ff16600381111561258d577f4e487b7100000000000000000000000000000000000000000000000000000000600052602160045260246000fd5b60038111156125c5577f4e487b7100000000000000000000000000000000000000000000000000000000600052602160045260246000fd5b81526020016003820160019054906101000a900473ffffffffffffffffffffffffffffffffffffffff1673ffffffffffffffffffffffffffffffffffffffff1673ffffffffffffffffffffffffffffffffffffffff16815250508152602001600c820180546126339061429e565b80601f016020809104026020016040519081016040528092919081815260200182805461265f9061429e565b80156126ac5780601f10612681576101008083540402835291602001916126ac565b820191906000526020600020905b81548152906001019060200180831161268f57829003601f168201915b5050505050815250508484815181106126ee577f4e487b7100000000000000000000000000000000000000000000000000000000600052603260045260246000fd5b60200260200101819052508280612704906142d0565b935050508080612713906142d0565b91505061200e565b508192505050919050565b61272e6132ed565b600360008381526020019081526020016000206040518060c001604052908160008201548152602001600182016040518060400160405290816000820160009054906101000a900473ffffffffffffffffffffffffffffffffffffffff1673ffffffffffffffffffffffffffffffffffffffff1673ffffffffffffffffffffffffffffffffffffffff1681526020016001820160009054906101000a900473ffffffffffffffffffffffffffffffffffffffff1673ffffffffffffffffffffffffffffffffffffffff1673ffffffffffffffffffffffffffffffffffffffff16815250508152602001600382016040518060800160405290816000820160009054906101000a900460ff161515151581526020016000820160019054906101000a900460ff161515151581526020016000820160029054906101000a900460ff161515151581526020016000820160039054906101000a900460ff1660028111156128c2577f4e487b7100000000000000000000000000000000000000000000000000000000600052602160045260246000fd5b60028111156128fa577f4e487b7100000000000000000000000000000000000000000000000000000000600052602160045260246000fd5b815250508152602001600482016040518060800160405290816000820180546129229061429e565b80601f016020809104026020016040519081016040528092919081815260200182805461294e9061429e565b801561299b5780601f106129705761010080835404028352916020019161299b565b820191906000526020600020905b81548152906001019060200180831161297e57829003601f168201915b505050505081526020016001820180546129b49061429e565b80601f01602080910402602001604051908101604052809291908181526020018280546129e09061429e565b8015612a2d5780601f10612a0257610100808354040283529160200191612a2d565b820191906000526020600020905b815481529060010190602001808311612a1057829003601f168201915b50505050508152602001600282015481526020016003820154815250508152602001600882016040518060a0016040529081600082018054612a6e9061429e565b80601f0160208091040260200160405190810160405280929190818152602001828054612a9a9061429e565b8015612ae75780601f10612abc57610100808354040283529160200191612ae7565b820191906000526020600020905b815481529060010190602001808311612aca57829003601f168201915b50505050508152602001600182018054612b009061429e565b80601f0160208091040260200160405190810160405280929190818152602001828054612b2c9061429e565b8015612b795780601f10612b4e57610100808354040283529160200191612b79565b820191906000526020600020905b815481529060010190602001808311612b5c57829003601f168201915b50505050508152602001600282018054612b929061429e565b80601f0160208091040260200160405190810160405280929190818152602001828054612bbe9061429e565b8015612c0b5780601f10612be057610100808354040283529160200191612c0b565b820191906000526020600020905b815481529060010190602001808311612bee57829003601f168201915b505050505081526020016003820160009054906101000a900460ff166003811115612c5f577f4e487b7100000000000000000000000000000000000000000000000000000000600052602160045260246000fd5b6003811115612c97577f4e487b7100000000000000000000000000000000000000000000000000000000600052602160045260246000fd5b81526020016003820160019054906101000a900473ffffffffffffffffffffffffffffffffffffffff1673ffffffffffffffffffffffffffffffffffffffff1673ffffffffffffffffffffffffffffffffffffffff16815250508152602001600c82018054612d059061429e565b80601f0160208091040260200160405190810160405280929190818152602001828054612d319061429e565b8015612d7e5780601f10612d5357610100808354040283529160200191612d7e565b820191906000526020600020905b815481529060010190602001808311612d6157829003601f168201915b5050505050815250509050919050565b6000600254905090565b60008060009054906101000a900473ffffffffffffffffffffffffffffffffffffffff16905090565b612dc96133c1565b612dd1613221565b73ffffffffffffffffffffffffffffffffffffffff16612def612d98565b73ffffffffffffffffffffffffffffffffffffffff1614612e45576040517f08c379a0000000000000000000000000000000000000000000000000000000008152600401612e3c90614058565b60405180910390fd5b600160008373ffffffffffffffffffffffffffffffffffffffff1673ffffffffffffffffffffffffffffffffffffffff1681526020019081526020016000206040518060a0016040529081600082018054612e9f9061429e565b80601f0160208091040260200160405190810160405280929190818152602001828054612ecb9061429e565b8015612f185780601f10612eed57610100808354040283529160200191612f18565b820191906000526020600020905b815481529060010190602001808311612efb57829003601f168201915b50505050508152602001600182018054612f319061429e565b80601f0160208091040260200160405190810160405280929190818152602001828054612f5d9061429e565b8015612faa5780601f10612f7f57610100808354040283529160200191612faa565b820191906000526020600020905b815481529060010190602001808311612f8d57829003601f168201915b50505050508152602001600282018054612fc39061429e565b80601f0160208091040260200160405190810160405280929190818152602001828054612fef9061429e565b801561303c5780601f106130115761010080835404028352916020019161303c565b820191906000526020600020905b81548152906001019060200180831161301f57829003601f168201915b505050505081526020016003820160009054906101000a900460ff166003811115613090577f4e487b7100000000000000000000000000000000000000000000000000000000600052602160045260246000fd5b60038111156130c8577f4e487b7100000000000000000000000000000000000000000000000000000000600052602160045260246000fd5b81526020016003820160019054906101000a900473ffffffffffffffffffffffffffffffffffffffff1673ffffffffffffffffffffffffffffffffffffffff1673ffffffffffffffffffffffffffffffffffffffff16815250509050919050565b613131613221565b73ffffffffffffffffffffffffffffffffffffffff1661314f612d98565b73ffffffffffffffffffffffffffffffffffffffff16146131a5576040517f08c379a000000000000000000000000000000000000000000000000000000000815260040161319c90614058565b60405180910390fd5b600073ffffffffffffffffffffffffffffffffffffffff168173ffffffffffffffffffffffffffffffffffffffff161415613215576040517f08c379a000000000000000000000000000000000000000000000000000000000815260040161320c90614038565b60405180910390fd5b61321e81613229565b50565b600033905090565b60008060009054906101000a900473ffffffffffffffffffffffffffffffffffffffff169050816000806101000a81548173ffffffffffffffffffffffffffffffffffffffff021916908373ffffffffffffffffffffffffffffffffffffffff1602179055508173ffffffffffffffffffffffffffffffffffffffff168173ffffffffffffffffffffffffffffffffffffffff167f8be0079c531659141344cd1fd0a4f28419497f9722a3daafe3b4186f6b6457e060405160405180910390a35050565b6040518060c001604052806000815260200161330761343e565b8152602001613314613484565b81526020016133216134ea565b815260200161332e6133c1565b8152602001606081525090565b8280546133479061429e565b90600052602060002090601f01602090048101928261336957600085556133b0565b82601f1061338257805160ff19168380011785556133b0565b828001600101855582156133b0579182015b828111156133af578251825591602001919060010190613394565b5b5090506133bd9190613512565b5090565b6040518060a001604052806060815260200160608152602001606081526020016000600381111561341b577f4e487b7100000000000000000000000000000000000000000000000000000000600052602160045260246000fd5b8152602001600073ffffffffffffffffffffffffffffffffffffffff1681525090565b6040518060400160405280600073ffffffffffffffffffffffffffffffffffffffff168152602001600073ffffffffffffffffffffffffffffffffffffffff1681525090565b6040518060800160405280600015158152602001600015158152602001600015158152602001600060028111156134e4577f4e487b7100000000000000000000000000000000000000000000000000000000600052602160045260246000fd5b81525090565b6040518060800160405280606081526020016060815260200160008152602001600081525090565b5b8082111561352b576000816000905550600101613513565b5090565b600061354261353d84614108565b6140d7565b9050808382526020820190508285602086028201111561356157600080fd5b60005b85811015613591578161357788826138b5565b845260208401935060208301925050600181019050613564565b5050509392505050565b60006135ae6135a984614134565b6140d7565b9050828152602081018484840111156135c657600080fd5b6135d184828561425c565b509392505050565b6000813590506135e88161440e565b92915050565b600082601f8301126135ff57600080fd5b813561360f84826020860161352f565b91505092915050565b60008135905061362781614425565b92915050565b60008135905061363c8161443c565b92915050565b6000813590506136518161444c565b92915050565b600082601f83011261366857600080fd5b813561367884826020860161359b565b91505092915050565b60006080828403121561369357600080fd5b61369d60806140d7565b9050600082013567ffffffffffffffff8111156136b957600080fd5b6136c584828501613657565b600083015250602082013567ffffffffffffffff8111156136e557600080fd5b6136f184828501613657565b6020830152506040613705848285016138b5565b6040830152506060613719848285016138b5565b60608301525092915050565b60006080828403121561373757600080fd5b61374160806140d7565b9050600061375184828501613618565b600083015250602061376584828501613618565b602083015250604061377984828501613618565b604083015250606061378d84828501613642565b60608301525092915050565b6000604082840312156137ab57600080fd5b6137b560406140d7565b905060006137c5848285016135d9565b60008301525060206137d9848285016135d9565b60208301525092915050565b600060a082840312156137f757600080fd5b61380160a06140d7565b9050600082013567ffffffffffffffff81111561381d57600080fd5b61382984828501613657565b600083015250602082013567ffffffffffffffff81111561384957600080fd5b61385584828501613657565b602083015250604082013567ffffffffffffffff81111561387557600080fd5b61388184828501613657565b60408301525060606138958482850161362d565b60608301525060806138a9848285016135d9565b60808301525092915050565b6000813590506138c48161445c565b92915050565b6000602082840312156138dc57600080fd5b60006138ea848285016135d9565b91505092915050565b6000806040838503121561390657600080fd5b6000613914858286016135d9565b925050602083013567ffffffffffffffff81111561393157600080fd5b61393d858286016137e5565b9150509250929050565b60006020828403121561395957600080fd5b600082013567ffffffffffffffff81111561397357600080fd5b61397f848285016135ee565b91505092915050565b600080600080610100858703121561399f57600080fd5b60006139ad87828801613799565b94505060406139be87828801613725565b93505060c085013567ffffffffffffffff8111156139db57600080fd5b6139e787828801613681565b92505060e085013567ffffffffffffffff811115613a0457600080fd5b613a1087828801613657565b91505092959194509250565b600060208284031215613a2e57600080fd5b6000613a3c848285016138b5565b91505092915050565b600080600060608486031215613a5a57600080fd5b6000613a68868287016138b5565b9350506020613a7986828701613642565b925050604084013567ffffffffffffffff811115613a9657600080fd5b613aa286828701613657565b9150509250925092565b60008060408385031215613abf57600080fd5b6000613acd858286016138b5565b925050602083013567ffffffffffffffff811115613aea57600080fd5b613af685828601613657565b9150509250929050565b6000613b0c8383613cb3565b905092915050565b613b1d816141ca565b82525050565b613b2c816141ca565b82525050565b6000613b3d82614174565b613b478185614197565b935083602082028501613b5985614164565b8060005b85811015613b955784840389528151613b768582613b00565b9450613b818361418a565b925060208a01995050600181019050613b5d565b50829750879550505050505092915050565b613bb0816141dc565b82525050565b613bbf81614238565b82525050565b613bce8161424a565b82525050565b6000613bdf8261417f565b613be981856141a8565b9350613bf981856020860161426b565b613c02816143d5565b840191505092915050565b6000613c1a6026836141b9565b91507f4f776e61626c653a206e6577206f776e657220697320746865207a65726f206160008301527f64647265737300000000000000000000000000000000000000000000000000006020830152604082019050919050565b6000613c806020836141b9565b91507f4f776e61626c653a2063616c6c6572206973206e6f7420746865206f776e65726000830152602082019050919050565b600061014083016000830151613ccc6000860182613fdd565b506020830151613cdf6020860182613ea6565b506040830151613cf26060860182613e51565b50606083015184820360e0860152613d0a8282613de7565b9150506080830151848203610100860152613d258282613ed5565b91505060a0830151848203610120860152613d408282613bd4565b9150508091505092915050565b600061014083016000830151613d666000860182613fdd565b506020830151613d796020860182613ea6565b506040830151613d8c6060860182613e51565b50606083015184820360e0860152613da48282613de7565b9150506080830151848203610100860152613dbf8282613ed5565b91505060a0830151848203610120860152613dda8282613bd4565b9150508091505092915050565b60006080830160008301518482036000860152613e048282613bd4565b91505060208301518482036020860152613e1e8282613bd4565b9150506040830151613e336040860182613fdd565b506060830151613e466060860182613fdd565b508091505092915050565b608082016000820151613e676000850182613ba7565b506020820151613e7a6020850182613ba7565b506040820151613e8d6040850182613ba7565b506060820151613ea06060850182613bc5565b50505050565b604082016000820151613ebc6000850182613b14565b506020820151613ecf6020850182613b14565b50505050565b600060a0830160008301518482036000860152613ef28282613bd4565b91505060208301518482036020860152613f0c8282613bd4565b91505060408301518482036040860152613f268282613bd4565b9150506060830151613f3b6060860182613bb6565b506080830151613f4e6080860182613b14565b508091505092915050565b600060a0830160008301518482036000860152613f768282613bd4565b91505060208301518482036020860152613f908282613bd4565b91505060408301518482036040860152613faa8282613bd4565b9150506060830151613fbf6060860182613bb6565b506080830151613fd26080860182613b14565b508091505092915050565b613fe68161422e565b82525050565b613ff58161422e565b82525050565b60006020820190506140106000830184613b23565b92915050565b600060208201905081810360008301526140308184613b32565b905092915050565b6000602082019050818103600083015261405181613c0d565b9050919050565b6000602082019050818103600083015261407181613c73565b9050919050565b600060208201905081810360008301526140928184613d4d565b905092915050565b600060208201905081810360008301526140b48184613f59565b905092915050565b60006020820190506140d16000830184613fec565b92915050565b6000604051905081810181811067ffffffffffffffff821117156140fe576140fd6143a6565b5b8060405250919050565b600067ffffffffffffffff821115614123576141226143a6565b5b602082029050602081019050919050565b600067ffffffffffffffff82111561414f5761414e6143a6565b5b601f19601f8301169050602081019050919050565b6000819050602082019050919050565b600081519050919050565b600081519050919050565b6000602082019050919050565b600082825260208201905092915050565b600082825260208201905092915050565b600082825260208201905092915050565b60006141d58261420e565b9050919050565b60008115159050919050565b60008190506141f6826143e6565b919050565b6000819050614209826143fa565b919050565b600073ffffffffffffffffffffffffffffffffffffffff82169050919050565b6000819050919050565b6000614243826141e8565b9050919050565b6000614255826141fb565b9050919050565b82818337600083830152505050565b60005b8381101561428957808201518184015260208101905061426e565b83811115614298576000848401525b50505050565b600060028204905060018216806142b657607f821691505b602082108114156142ca576142c9614377565b5b50919050565b60006142db8261422e565b91507fffffffffffffffffffffffffffffffffffffffffffffffffffffffffffffffff82141561430e5761430d614319565b5b600182019050919050565b7f4e487b7100000000000000000000000000000000000000000000000000000000600052601160045260246000fd5b7f4e487b7100000000000000000000000000000000000000000000000000000000600052602160045260246000fd5b7f4e487b7100000000000000000000000000000000000000000000000000000000600052602260045260246000fd5b7f4e487b7100000000000000000000000000000000000000000000000000000000600052604160045260246000fd5b6000601f19601f8301169050919050565b600481106143f7576143f6614348565b5b50565b6003811061440b5761440a614348565b5b50565b614417816141ca565b811461442257600080fd5b50565b61442e816141dc565b811461443957600080fd5b50565b6004811061444957600080fd5b50565b6003811061445957600080fd5b50565b6144658161422e565b811461447057600080fd5b5056fea2646970667358221220f9467917a88c21c43d5ed11d674f76d548f1e22ecde97d40b46cf47545a3824564736f6c63430008000033",
  "devdoc": {
    "kind": "dev",
    "methods": {
      "owner()": {
        "details": "Returns the address of the current owner."
      },
      "renounceOwnership()": {
        "details": "Leaves the contract without owner. It will not be possible to call `onlyOwner` functions anymore. Can only be called by the current owner. NOTE: Renouncing ownership will leave the contract without an owner, thereby removing any functionality that is only available to the owner."
      },
      "transferOwnership(address)": {
        "details": "Transfers ownership of the contract to a new account (`newOwner`). Can only be called by the current owner."
      }
    },
    "version": 1
  },
  "userdoc": {
    "kind": "user",
    "methods": {},
    "version": 1
  },
  "storageLayout": {
    "storage": [
      {
        "astId": 7,
        "contract": "src/Ride.sol:Ride",
        "label": "_owner",
        "offset": 0,
        "slot": "0",
        "type": "t_address"
      },
      {
        "astId": 456,
        "contract": "src/Ride.sol:Ride",
        "label": "_vehicles",
        "offset": 0,
        "slot": "1",
        "type": "t_mapping(t_address,t_struct(VEHICLE_INFO)451_storage)"
      },
      {
        "astId": 137,
        "contract": "src/Ride.sol:Ride",
        "label": "rideCount",
        "offset": 0,
        "slot": "2",
        "type": "t_uint256"
      },
      {
        "astId": 187,
        "contract": "src/Ride.sol:Ride",
        "label": "_rides",
        "offset": 0,
        "slot": "3",
        "type": "t_mapping(t_uint256,t_struct(RIDE)182_storage)"
      }
    ],
    "types": {
      "t_address": {
        "encoding": "inplace",
        "label": "address",
        "numberOfBytes": "20"
      },
      "t_bool": {
        "encoding": "inplace",
        "label": "bool",
        "numberOfBytes": "1"
      },
      "t_enum(VEHICLE_TYPE)439": {
        "encoding": "inplace",
        "label": "enum Vehicle.VEHICLE_TYPE",
        "numberOfBytes": "1"
      },
      "t_enum(appUser)141": {
        "encoding": "inplace",
        "label": "enum Ride.appUser",
        "numberOfBytes": "1"
      },
      "t_mapping(t_address,t_struct(VEHICLE_INFO)451_storage)": {
        "encoding": "mapping",
        "key": "t_address",
        "label": "mapping(address => struct Vehicle.VEHICLE_INFO)",
        "numberOfBytes": "32",
        "value": "t_struct(VEHICLE_INFO)451_storage"
      },
      "t_mapping(t_uint256,t_struct(RIDE)182_storage)": {
        "encoding": "mapping",
        "key": "t_uint256",
        "label": "mapping(uint256 => struct Ride.RIDE)",
        "numberOfBytes": "32",
        "value": "t_struct(RIDE)182_storage"
      },
      "t_string_storage": {
        "encoding": "bytes",
        "label": "string",
        "numberOfBytes": "32"
      },
      "t_struct(RIDE)182_storage": {
        "encoding": "inplace",
        "label": "struct Ride.RIDE",
        "members": [
          {
            "astId": 167,
            "contract": "src/Ride.sol:Ride",
            "label": "id",
            "offset": 0,
            "slot": "0",
            "type": "t_uint256"
          },
          {
            "astId": 170,
            "contract": "src/Ride.sol:Ride",
            "label": "users",
            "offset": 0,
            "slot": "1",
            "type": "t_struct(USERS)146_storage"
          },
          {
            "astId": 173,
            "contract": "src/Ride.sol:Ride",
            "label": "status",
            "offset": 0,
            "slot": "3",
            "type": "t_struct(STATUS)156_storage"
          },
          {
            "astId": 176,
            "contract": "src/Ride.sol:Ride",
            "label": "ride",
            "offset": 0,
            "slot": "4",
            "type": "t_struct(RIDE_DETAILS)165_storage"
          },
          {
            "astId": 179,
            "contract": "src/Ride.sol:Ride",
            "label": "vehicle",
            "offset": 0,
            "slot": "8",
            "type": "t_struct(VEHICLE_INFO)451_storage"
          },
          {
            "astId": 181,
            "contract": "src/Ride.sol:Ride",
            "label": "timestamp",
            "offset": 0,
            "slot": "12",
            "type": "t_string_storage"
          }
        ],
        "numberOfBytes": "416"
      },
      "t_struct(RIDE_DETAILS)165_storage": {
        "encoding": "inplace",
        "label": "struct Ride.RIDE_DETAILS",
        "members": [
          {
            "astId": 158,
            "contract": "src/Ride.sol:Ride",
            "label": "pickup",
            "offset": 0,
            "slot": "0",
            "type": "t_string_storage"
          },
          {
            "astId": 160,
            "contract": "src/Ride.sol:Ride",
            "label": "destination",
            "offset": 0,
            "slot": "1",
            "type": "t_string_storage"
          },
          {
            "astId": 162,
            "contract": "src/Ride.sol:Ride",
            "label": "distance",
            "offset": 0,
            "slot": "2",
            "type": "t_uint256"
          },
          {
            "astId": 164,
            "contract": "src/Ride.sol:Ride",
            "label": "price",
            "offset": 0,
            "slot": "3",
            "type": "t_uint256"
          }
        ],
        "numberOfBytes": "128"
      },
      "t_struct(STATUS)156_storage": {
        "encoding": "inplace",
        "label": "struct Ride.STATUS",
        "members": [
          {
            "astId": 148,
            "contract": "src/Ride.sol:Ride",
            "label": "isCancelled",
            "offset": 0,
            "slot": "0",
            "type": "t_bool"
          },
          {
            "astId": 150,
            "contract": "src/Ride.sol:Ride",
            "label": "isComplete",
            "offset": 1,
            "slot": "0",
            "type": "t_bool"
          },
          {
            "astId": 152,
            "contract": "src/Ride.sol:Ride",
            "label": "isConfirmed",
            "offset": 2,
            "slot": "0",
            "type": "t_bool"
          },
          {
            "astId": 155,
            "contract": "src/Ride.sol:Ride",
            "label": "wasCancelledBy",
            "offset": 3,
            "slot": "0",
            "type": "t_enum(appUser)141"
          }
        ],
        "numberOfBytes": "32"
      },
      "t_struct(USERS)146_storage": {
        "encoding": "inplace",
        "label": "struct Ride.USERS",
        "members": [
          {
            "astId": 143,
            "contract": "src/Ride.sol:Ride",
            "label": "customer",
            "offset": 0,
            "slot": "0",
            "type": "t_address"
          },
          {
            "astId": 145,
            "contract": "src/Ride.sol:Ride",
            "label": "driver",
            "offset": 0,
            "slot": "1",
            "type": "t_address"
          }
        ],
        "numberOfBytes": "64"
      },
      "t_struct(VEHICLE_INFO)451_storage": {
        "encoding": "inplace",
        "label": "struct Vehicle.VEHICLE_INFO",
        "members": [
          {
            "astId": 441,
            "contract": "src/Ride.sol:Ride",
            "label": "vehicle_no",
            "offset": 0,
            "slot": "0",
            "type": "t_string_storage"
          },
          {
            "astId": 443,
            "contract": "src/Ride.sol:Ride",
            "label": "RC",
            "offset": 0,
            "slot": "1",
            "type": "t_string_storage"
          },
          {
            "astId": 445,
            "contract": "src/Ride.sol:Ride",
            "label": "vehicleImages",
            "offset": 0,
            "slot": "2",
            "type": "t_string_storage"
          },
          {
            "astId": 448,
            "contract": "src/Ride.sol:Ride",
            "label": "vehicleType",
            "offset": 0,
            "slot": "3",
            "type": "t_enum(VEHICLE_TYPE)439"
          },
          {
            "astId": 450,
            "contract": "src/Ride.sol:Ride",
            "label": "driver",
            "offset": 1,
            "slot": "3",
            "type": "t_address"
          }
        ],
        "numberOfBytes": "128"
      },
      "t_uint256": {
        "encoding": "inplace",
        "label": "uint256",
        "numberOfBytes": "32"
      }
    }
  }
}